{
  "_format": "hh-sol-artifact-1",
  "contractName": "Operator",
  "sourceName": "contracts/operator/Operator.sol",
  "abi": [
    {
      "inputs": [
        {
          "internalType": "address",
          "name": "_nofeeswap",
          "type": "address"
        },
        {
          "internalType": "address",
          "name": "_permit2",
          "type": "address"
        },
        {
          "internalType": "address",
          "name": "_weth9",
          "type": "address"
        },
        {
          "internalType": "address",
          "name": "_quoter",
          "type": "address"
        }
      ],
      "stateMutability": "nonpayable",
      "type": "constructor"
    },
    {
      "inputs": [],
      "name": "DeadlinePassed",
      "type": "error"
    },
    {
      "inputs": [
        {
          "internalType": "address",
          "name": "attemptingAddress",
          "type": "address"
        }
      ],
      "name": "OnlyByNofeeswap",
      "type": "error"
    },
    {
      "inputs": [],
      "name": "nofeeswap",
      "outputs": [
        {
          "internalType": "address",
          "name": "",
          "type": "address"
        }
      ],
      "stateMutability": "view",
      "type": "function"
    },
    {
      "inputs": [],
      "name": "permit2",
      "outputs": [
        {
          "internalType": "address",
          "name": "",
          "type": "address"
        }
      ],
      "stateMutability": "view",
      "type": "function"
    },
    {
      "inputs": [],
      "name": "quoter",
      "outputs": [
        {
          "internalType": "address",
          "name": "",
          "type": "address"
        }
      ],
      "stateMutability": "view",
      "type": "function"
    },
    {
      "inputs": [
        {
          "internalType": "bytes32",
          "name": "slot",
          "type": "bytes32"
        }
      ],
      "name": "transientAccess",
      "outputs": [
        {
          "internalType": "bytes32",
          "name": "",
          "type": "bytes32"
        }
      ],
      "stateMutability": "view",
      "type": "function"
    },
    {
      "inputs": [
        {
          "internalType": "bytes32[]",
          "name": "slots",
          "type": "bytes32[]"
        }
      ],
      "name": "transientAccess",
      "outputs": [
        {
          "internalType": "bytes32[]",
          "name": "",
          "type": "bytes32[]"
        }
      ],
      "stateMutability": "view",
      "type": "function"
    },
    {
      "inputs": [
        {
          "internalType": "bytes32",
          "name": "startSlot",
          "type": "bytes32"
        },
        {
          "internalType": "uint256",
          "name": "nSlots",
          "type": "uint256"
        }
      ],
      "name": "transientAccess",
      "outputs": [
        {
          "internalType": "bytes32[]",
          "name": "",
          "type": "bytes32[]"
        }
      ],
      "stateMutability": "view",
      "type": "function"
    },
    {
      "inputs": [
        {
          "internalType": "address",
          "name": "caller",
          "type": "address"
        },
        {
          "internalType": "bytes",
          "name": "data",
          "type": "bytes"
        }
      ],
      "name": "unlockCallback",
      "outputs": [
        {
          "internalType": "bytes",
          "name": "returnData",
          "type": "bytes"
        }
      ],
      "stateMutability": "payable",
      "type": "function"
    },
    {
      "inputs": [],
      "name": "weth9",
      "outputs": [
        {
          "internalType": "address",
          "name": "",
          "type": "address"
        }
      ],
      "stateMutability": "view",
      "type": "function"
    },
    {
      "stateMutability": "payable",
      "type": "receive"
    }
  ],
  "bytecode": "0x610100346100c757601f611c2238819003918201601f19168301916001600160401b038311848410176100cb578084926080946040528339810103126100c757610048816100df565b90610055602082016100df565b61006d6060610066604085016100df565b93016100df565b9260805260a05260c05260e052604051611b2e90816100f4823960805181818161013a0152610325015260a05181818160ab0152610367015260c05181818160f60152610388015260e05181818161023401526103aa0152f35b5f80fd5b634e487b7160e01b5f52604160045260245ffd5b51906001600160a01b03821682036100c75756fe6080604052600436101561001a575b3615610018575f80fd5b005b5f3560e01c806312261ee71461009957806350879c1c146100945780635572b1551461008f578063834178fe1461008a578063b84a0dd214610085578063c6bbd5a714610080578063d02bdb621461007b5763d4e27d3b0361000e576102ba565b610263565b61021f565b610185565b610169565b610125565b6100e1565b346100dd575f3660031901126100dd577f00000000000000000000000000000000000000000000000000000000000000006001600160a01b03166080908152602090f35b5f80fd5b346100dd575f3660031901126100dd576040517f00000000000000000000000000000000000000000000000000000000000000006001600160a01b03168152602090f35b346100dd575f3660031901126100dd576040517f00000000000000000000000000000000000000000000000000000000000000006001600160a01b03168152602090f35b346100dd5760203660031901126100dd576004355c5f5260205ff35b346100dd5760203660031901126100dd5760043567ffffffffffffffff81116100dd57366023820112156100dd5780600401359067ffffffffffffffff82116100dd578160051b9036602483830101116100dd5760408051809460208252602082015201918301916020806024604086019401925b83355c81520191019084838210156102165750602080916101fa565b60408186030190f35b346100dd575f3660031901126100dd576040517f00000000000000000000000000000000000000000000000000000000000000006001600160a01b03168152602090f35b346100dd5760403660031901126100dd57600435602435906040519160408360208152826020820152019060051b8301916001602060408501935b835c81520191019084838210156102165750602060019161029e565b60403660031901126100dd576004356001600160a01b03811681036100dd576024359067ffffffffffffffff82116100dd57366023830112156100dd5781600401359167ffffffffffffffff83116100dd5736602484830101116100dd575050506001600160a01b037f000000000000000000000000000000000000000000000000000000000000000016330361084a5760043560443560640161036560643560e01c42111561085d565b7f00000000000000000000000000000000000000000000000000000000000000007f0000000000000000000000000000000000000000000000000000000000000000917f00000000000000000000000000000000000000000000000000000000000000009060685b8181106103f45785476103dc57005b5f8080809347905af1156103ec57005b3d5f803e3d5ffd5b803560f81c9060010190816001821461083e57508060041461083457806034146108295780600d1461081f5780601014610815578060141461080e57806015146108045780156107fa57806032146107ef57806033146107e45780602a146107da5780602d146107d05780602f146107c657806025146107bb57806024146107b157806026146107a5578060221461079a578060231461078f5780602914610785578060201461077a578060211461076f5780603514610765578060271461075a5780602b146107505780603014610745578060311461073a57806002146107305780603714610725578060381461071a5780600514610710578060061461070657806007146106fc57806008146106f257806009146106e85780600b146106de5780600c146106d45780600a146106ca57806016146106c057806017146106b657806018146106ac5780601f146106a25780601a146106985780601b1461068d57806019146106835780601c146106795780601d1461066f5780600e146106655780600f1461065b57806011146106515780601214610647578060131461063d578060361461063357806039146106285780603a1461061d5780602e1461061357806028146106085780602c146105fe5780601e146105ee576003146105dd573d5f803e3d5ffd5b6105e6906108fd565b905b906103cd565b506105f890610ec7565b906105e8565b506105f8906114cd565b506105f8908661135a565b506105f890611572565b506105f89083611acb565b506105f89083611a3c565b506105f8906118bc565b506105f890610bf1565b506105f890610bc9565b506105f890610ba1565b506105f890610b5f565b506105f890610b37565b506105f890610e71565b506105f890610e13565b506105f890610d23565b506105f89084610dcb565b506105f890610d75565b506105f890610f1d565b506105f890610cd9565b506105f890610ca4565b506105f890610c57565b506105f890610a59565b506105f890610acd565b506105f890610a8c565b506105f8906109fc565b506105f8906109cd565b506105f89061099e565b506105f890610969565b506105f890610934565b506105f89083611963565b506105f890836116be565b506105f8906108e7565b506105f890866115e6565b506105f890306115e6565b506105f89061146f565b506105f890866112f0565b506105f8906117b5565b506105f89085610fc8565b506105f89085610f97565b506105f8906113dc565b506105f890846110db565b506105f89084610ffc565b506105f89086856112a1565b506105f89061120b565b506105f8908661123f565b506105f89061159f565b506105f89061154f565b506105f89061141a565b506105f89086611666565b506105f8908661162b565b506105f8906108c3565b506105f890610c19565b50906105e8565b506105f890610b89565b506105f890610b0e565b506105f890336116be565b506105f890610910565b90506105f891506108d1565b632ce1ee5f60e01b5f523360045260245ffd5b1561086457565b63387b2e5560e11b5f5260045ffd5b9080826101a4370190565b908082610144370190565b908082610188370190565b908082610148370190565b9181819293370190565b5c905f82126108b457565b63f87815b360e01b5f5260045ffd5b905f82600101923560f81c5d565b90813591600b01918060b01d9060a81c60ff165d565b90813591601101918060801d9060781c60ff165d565b9060218201918035906020013560f81c5d565b6002810191903560f881901c5c600160ff1b81146108b4575f039060f01c60ff165d565b9061095382600301923560e81c8060ff168160081c60ff169160101c92565b90915c915c5f8184019384129112036108b4575d565b9061098882600301923560e81c8060ff168160081c60ff169160101c92565b90915c915c5f8184039384129113036108b4575d565b906109bd82600301923560e81c8060ff168160081c60ff169160101c92565b915c905c8180820391120201905d565b906109ec82600301923560e81c8060ff168160081c60ff169160101c92565b915c905c8180820391130201905d565b90610a1b82600301923560e81c8060ff168160081c60ff169160101c92565b90915c915c8083029280610a2f575b50505d565b8305036108b4575f80610a2a565b81156108b457600160ff1b14610a505750565b5f19146108b457565b90610a7882600301923560e81c8060ff168160081c60ff169160101c92565b915c905c90610a878282610a3d565b05905d565b90610aab82600301923560e81c8060ff168160081c60ff169160101c92565b915c905c610ab98183610a3d565b80820715155f82135f84121416910503905d565b90610aec82600301923560e81c8060ff168160081c60ff169160101c92565b915c905c610afa8183610a3d565b80820715155f82125f84121416910501905d565b90610b2d82600301923560e81c8060ff168160081c60ff169160101c92565b91905c905c12905d565b90610b5682600301923560e81c8060ff168160081c60ff169160101c92565b915c905c14905d565b90610b7e82600301923560e81c8060ff168160081c60ff169160101c92565b91905c905c1315905d565b90813591600201918060f81c5c159060f01c60ff165d565b90610bc082600301923560e81c8060ff168160081c60ff169160101c92565b915c905c16905d565b90610be882600301923560e81c8060ff168160081c60ff169160101c92565b915c905c17905d565b90610c1082600301923560e81c8060ff168160081c60ff169160101c92565b915c905c18905d565b90813591600301918060e81c60ff165c610c305750565b90915060f01c6068016014813560f81c03610c485790565b6305b7ccd960e41b5f5260045ffd5b90816020013560358301926bdc0da6920d198e2eedf81ef66020528160601c601452355f5260405f206341a0bc7f60e11b5f5260045260205f60248180335af1505f519060581c60ff165d565b90813591601501918060581c60ff169060601c30811490815f14610cd25750600114610ccd5750565b47905d565b905031905d565b905f602a830192602082602481610d03856014013560501c8060ff168160081c60ff169160101c92565b97916370a0823160e09892981b83526004523560601c5af1905d5f51905d565b905f604a83019260208260446080610d4e603486013560501c8060ff168160081c60ff169160101c92565b9791627eeac760e19892981b8452608452806014013560a4523560601c5af1905d5f51905d565b905f603e83019260208260446080610da0602886013560501c8060ff168160081c60ff169160101c92565b9791636eb1769f60e19892981b8452816014013560601c60845260a4523560601c5af1905d5f51905d565b91909160205f6064608082602888013595603d89019863927da10560e01b8452806014013560601c6084523560601c60a4528660601c60c4525af1505f519060581c60ff165d565b905f605e83019260208260646080610e3e604886013560501c8060ff168160081c60ff169160101c92565b979163598af9e760e09892981b8452603482013560601c60845260a452806014013560c4523560601c5af1905d5f51905d565b905f603e83019260208260446080610e9c602886013560501c8060ff168160081c60ff169160101c92565b9791635b1b1e7960e19892981b8452816014013560601c60845260a4523560601c5af1905d5f51905d565b905f603e83019260208260446080610ef2602886013560501c8060ff168160081c60ff169160101c92565b979163e985e9c560e09892981b8452816014013560601c60845260a4523560601c5af1905d5f51905d565b906040820191610f42833560501c93601601938060ff168160081c60ff169160101c92565b9290916bc8f78086c3211e71a328e7f560c05260b452806020013560a05235608052631352ea3560e01b5f52606060802060045260205f60248180335af1505f51906001600160801b038216905d60801c905d565b91905f8060048184359460020196630d0e30db60e41b8252610fbb8660f81c6108a9565b905af19060f01c60ff165d565b91905f806024818085359560020197632e1a7d4d60e01b8252610fed8760f81c6108a9565b6004525af19060f01c60ff165d565b91906302b67b5760e41b6080526101006101645261102f813560281c8060ff168160081c65ffffffffffff169160381c92565b919490915c906001600160a01b0382116108b45760805f6110a86110906110726110cf98849885986110bc9d60845260c45261010452601b019081359160200190565b91908065ffffffffffff168160301c65ffffffffffff169160601c92565b9160a45260e4526101445290813560501c9160160190565b98908060ff168160081c60ff169160101c92565b998a919892610124528161018452610873565b9761012401925af1905d565b632a2d80d160e01b608052606060a481905260e45261113a9291611120919061114e90803560281c90601b0193908060ff168160081c65ffffffffffff169160381c92565b9691908795916084526101245290813560501c9160160190565b91908060ff168160081c60ff169160101c92565b80600796939492961b9360e08561016401950160c4526101045261014452610164925b80841061119e57505f83611191846080948498968598526020840161089f565b9801605f1901925af1905d565b926020820192509035605881901c60ff165c9190606081901c906affffffffffffffffffffff166001600160a01b038411611206576080936111f192845260208401528065ffffffffffff169060301c91565b90604083015260608201520191908691611171565b6108b4565b906112385f80808061123187601601973560501c8060ff168160081c60ff169160101c92565b96906108a9565b905af1905d565b91909182359060205f606460808261126e602b8a01996015013560501c8060ff168160081c60ff169160101c92565b989190976323b872dd60e01b855260845260a4526112918160581c60ff166108a9565b60c45260601c5af1905d5f51905d565b5f60846080828094979695976112da8735602a896015013599019a631b63c28b60e11b865286528060601c60a45260581c60ff166108a9565b60c4528660601c60e4525af19060581c60ff165d565b91909160348301359060205f6084608082604b8901986113496113278960481c62ffffff168060ff168160081c60ff169160101c92565b9a9099637f4c824d60e11b8752875260601c60a452826014013560c4526108a9565b60e4523560601c5af1905d5f51905d565b9190915f80603485013560381c946113b061138f8764ffffffffff169760281c978062ffffff168160181c60ff169160201c92565b989096637921219560e11b60805260845260a452826014013560c4526108a9565b60e45260a0610104528561012452608082604d830188816101443788019760c401923560601c5af1905d565b6320f7481f60e11b60805280356084526022810191906020013561140360f882901c6108a9565b60a4525f806044608082335af19060f01c60ff165d565b90602a82019161145e611440826014013560501c8060ff168160081c60ff169160101c92565b630b0d9c0960e01b608052933560601c60845260a4919091526108a9565b60c4525f806064608082335af1905d565b90604a8201916114bc611495603483013560501c8060ff168160081c60ff169160101c92565b6301c82d6160e21b608052843560601c60845260149094013560a45260c4919091526108a9565b60e4525f806084608082335af1905d565b9061152a915f80604d603484013560381c936115038564ffffffffff169560281c958062ffffff168160181c60ff169160201c92565b98919096632b7f670f60e01b608052833560601c608452836014013560a45260c4526108a9565b60e45260a06101045286610124520185816101443785019460c401608082335af1905d565b908160140191632961046560e21b5f523560601c6004525f8060248180335af150565b9060348201916377a7e57d60e11b608052803560601c6084526014013560a4525f806044608082335af150565b905f6115db60208260046115c787600301973560e81c8060ff168160081c60ff169160101c92565b630476982d60e21b885296909590916108a9565b335af1905d5f51905d565b91906114bc603682019361160d836020013560501c8060ff168160081c60ff169160101c92565b9491909263da95455960e01b60805260845260a4523560c4526108a9565b9190806020013590602281019363bea556c960e01b6080526084523560a4528060f81c5c60c4525f806064608082335af19060f01c60ff165d565b9190604381019261168a604083013560e81c8060ff168160081c60ff169160101c92565b9390926349dff3ab60e01b608052608452803560a4526020013560c4525c60e4525c610104525f8060a4608082335af1905d565b630644d2d360e31b60809081529092916117059161173d918035916020820135901c9060300193908066ffffffffffffff168160381c67ffffffffffffffff169160781c92565b9291826084525c60a452677fffffffffffffff199160b41c5f0b603b1b010160c4528064ffffffffff168160281c60ff169160301c92565b9491905c6001600160801b038111611206575f809360806117826117a19961179396604096841b1760e45260a0610104528062ffffff168160181c60ff169160201c92565b97919690978061ffff169060101c91565b809b9199816101245261087e565b9960c401925af1905d5f51905d602051905d565b906117e461181f61180460405f6118a46117d6611837989081359160200190565b9096813560501c9160160190565b94908065ffffffffffff168160301c67ffffffffffffffff169160701c92565b9991999690968063ffffffff168160201c60ff169160281c92565b96919290968061ffff168160101c60ff169160181c92565b9b8c949299919a63156fffe360e31b60805260206084528560c40160a452630390b83160e21b60c4528060c85260b41c870b603b1b9081677fffffffffffffff1991010160e852677fffffffffffffff19910101610108525c6101285260a0610148528161016852610889565b9661010801608082335af1905d5f51905d602051905d565b9060266119389261190560405f61194c6118ec856020013560d01c8063ffffffff168160201c60ff169160281c92565b9791979590958061ffff168160101c60ff169160181c92565b9a8b939298919963156fffe360e31b60805260206084528460840160a4526362fc9e5360e01b60c452823560c8526108a9565b60e852606061010852826101285201610894565b9660c801608082335af1905d5f51905d602051905d565b6119d16119b660405f611996946080826117a16119886119e99b9a9081359160200190565b9099813560501c9160160190565b97908065ffffffffffff168160301c67ffffffffffffffff169160701c92565b9c919c9990998063ffffffff168160201c60ff169160281c92565b99919290998061ffff168160101c60ff169160181c92565b9e8f94929c919d630390b83160e21b89528060845260b41c870b603b1b9081677fffffffffffffff1991010160a452677fffffffffffffff1991010160c4525c60e45260a061010452816101245261087e565b611aa0611a8760405f602694969596608082611a6e8a6020013560d01c8063ffffffff168160201c60ff169160281c92565b9991999790978061ffff168160101c60ff169160181c92565b9c9199909a6362fc9e5360e01b865282356084526108a9565b60a452606060c4528b60e4528b828201610104378b010199608401925af1905d5f51905d602051905d565b919060205f6024818060218601976341a0bc7f60e11b825286356004525af1505f51906020013560f81c5d56fea26469706673582212207b0b384045fb512ebddb2ec957eb638fab600ec7629388b6afeab91c15c7a8e164736f6c634300081c0033",
  "linkReferences": {},
  "deployedLinkReferences": {}
}